:100000000C9450000C94ED000C94ED000C94ED0059
:100010000C94ED000C94ED000C94ED000C94ED00AC
:100020000C94ED000C94ED000C94ED000C94ED009C
:100030000C94ED000C94ED000C94ED000C94ED008C
:100040000C94ED000C94ED000C94ED000C94ED007C
:100050000C94ED000C94ED000C94ED000C94ED006C
:100060000C94ED000C94ED000C94ED000C94ED005C
:100070000C94ED000C94ED000C94ED000C94ED004C
:100080000C94ED000C94ED000C94ED000C94ED003C
:100090000C94ED000C94ED000C94ED000C94ED002C
:1000A00011241FBECFEFCDBFDFE3DEBF0E945C0097
:0800B0000C945A00F894FFCFF4
:1000B800CF93DF93CDB7DEB72B97CDBFDEBF8BE0F5
:1000C800EEECF1E4DE01119601900D928A95E1F7CC
:1000D8008FEF80934104E0EAF4E080E28183858336
:1000E80080E1828384E0848BE0E0F6E08EE0868322
:1000F80082818361828380818160808301E010E056
:1001080041E020E434E0DD24DA940F2EF4E6EF2E0B
:10011800F12CF02D4087838580FFFDCF4387013088
:100128001105A1F480899189D9011696DC92B7014D
:100138000E94BF00A1E0B0E0AC0FBD1FA60FB71F23
:100148008C91D90115968C9300E010E080899189F3
:10015800009701F3D9011696DC92B7010E94BF00FF
:10016800A1E0B0E0AC0FBD1FA60FB71F8C91D9015D
:0601780015968C93CFCF19
:10017E0097FB072E16F4009407D077FD09D00E9446
:10018E00D30007FC05D03EF4909581959F4F0895BE
:08019E00709561957F4F0895F3
:1001A600AA1BBB1B51E107C0AA1FBB1FA617B70797
:1001B60010F0A61BB70B881F991F5A95A9F78095B3
:0801C6009095BC01CD010895E4
:0B01CE003F065B4F666D7D077F6F777B
:0401DA000C94000081
:00000001FF
