:100000000C9450000C9498010C9498010C941101DC
:100010000C9498010C9498010C9498010C949801FC
:100020000C9498010C9498010C9498010C949801EC
:100030000C9498010C9498010C9498010C949801DC
:100040000C9498010C9498010C9498010C949801CC
:100050000C9498010C9498010C9498010C949801BC
:100060000C9498010C9498010C9498010C949801AC
:100070000C9498010C9498010C9498010C9498019C
:100080000C9498010C9498010C9498010C9498018C
:100090000C9498010C9498010C9498010C9498017C
:1000A00011241FBECFEFCDBFDFE3DEBF0E945C0097
:0800B0000C945A00F894FFCFF4
:1000B800CF93DF93CDB7DEB72B97CDBFDEBF789454
:1000C8000E94E3008BE0E4E2F3E4DE011196019084
:1000D8000D928A95E1F700E414E08FEFD8011196AC
:1000E8008C93E0EAF4E080E28183858380E1828377
:1000F80084E0848BE0E8F4E091E09283808BE0EE8A
:10010800F5E094819160948380932104E0E0FAE023
:1001180088E0808381818360818386E490E186AB77
:1001280097AB81818064818380818160808380ED49
:1001380090E084AF95AF0E944601982EB92E64E6F0
:1001480070E00E945A01E1E0F0E0EC0FFD1FE60FBD
:10015800F71F8081F801858304E610E06894EE2497
:10016800E6F8FF24F2F8AA24AA940E944601E82F90
:10017800492FB8010E945A019B01892D9B2DB80176
:100188000E945A016217730779F0D7011696AC924C
:10019800A1E0B0E0AC0FBD1FA20FB31F8C91D70137
:1001A80015968C939E2EB42E0E942F016C010E94EE
:0E01B80046018C159D05CCF60E948201D6CF23
:1001C600CF93DF9360917C006E7F8CE790E00E9476
:1001D6008C01E0E6F0E0838186FDFDCFC0E6D0E04D
:1001E6006C8D6B7F8CE790E00E948C016C8D61605A
:1001F6008CE790E00E948C01E0E4F1E081818111BE
:10020600FDCFE0E4F1E082E0878386E690E0828736
:0C021600938781E08283DF91CF910895EF
:100222001F920F920FB60F9211248F939F93EF9309
:10023200FF93E0E4F1E081E083838EEF808380ED41
:1002420090E080933C0A90933D0AFF91EF919F9139
:0C0252008F910F900FBE0F901F90189519
:10025E00E0E0F6E082818360828380E28093A000FA
:10026E0088E0868380818160808381E080878385BA
:0E027E0080FFFDCF809110069091110608952B
:10028C00E0E0F6E08281836182838EE08683808168
:10029C008160808381E08087838580FFFDCF8091A2
:0802AC0010069091110608955F
:1002B40097FB072E16F4009407D077FD09D00E940F
:1002C4006E0107FC05D03EF4909581959F4F0895EB
:0802D400709561957F4F0895BC
:1002DC00AA1BBB1B51E107C0AA1FBB1FA617B70760
:1002EC0010F0A61BB70B881F991F5A95A9F780957C
:0802FC009095BC01CD010895AD
:1003040080EA91E080933C0A90933D0A89E28093CD
:040314004001089507
:0C031800DC0128ED209334006C93089564
:0B0324003F065B4F666D7D077F6F7723
:040330000C94000029
:00000001FF
